:020000040800F2
:10000000080A00205D2A00086D2A0008712A0008ED
:1000100000000000000000000000000000000000E0
:10002000000000000000000000000000752A000829
:100030000000000000000000792A00087D2A000866
:100040009F21000800000000B72100085B2900087C
:100050005B2A0008072D0008432D00085D2D0008CD
:10006000000000005F2D0008852A0008D32B00083F
:10007000612D0008632D0008652D000800000000B8
:10008000672D0008692D00086B2D00086D2D0008F4
:100090006F2D0008712D0008732D0008752D0008C4
:1000A000772D0008792D00087B2D00081F2B0008F4
:1000B0007D2D00087F2D00080000000000000000DA
:1000C000202E0000424F4F545F53544D33320000F6
:1000D000000000000000C1C081C1400101C3C00395
:1000E000800241C201C6C006800741C70005C1C5E4
:1000F00081C4400401CCC00C800D41CD000FC1CFA4
:1001000081CE400E000AC1CA81CB400B01C9C00993
:10011000800841C801D8C018801941D9001BC1DB33
:1001200081DA401A001EC1DE81DF401F01DDC01DE3
:10013000801C41DC0014C1D481D5401501D7C01703
:10014000801641D601D2C012801341D30011C1D113
:1001500081D0401001F0C030803141F10033C1F353
:1001600081F240320036C1F681F7403701F5C035E3
:10017000803441F4003CC1FC81FD403D01FFC03FA3
:10018000803E41FE01FAC03A803B41FB0039C1F993
:1001900081F840380028C1E881E9402901EBC02BF3
:1001A000802A41EA01EEC02E802F41EF002DC1EDE3
:1001B00081EC402C01E4C024802541E50027C1E703
:1001C00081E640260022C1E281E3402301E1C02113
:1001D000802041E001A0C060806141A10063C1A313
:1001E00081A240620066C1A681A7406701A5C065E3
:1001F000806441A4006CC1AC81AD406D01AFC06FA3
:10020000806E41AE01AAC06A806B41AB0069C1A992
:1002100081A840680078C1B881B9407901BBC07B32
:10022000807A41BA01BEC07E807F41BF007DC1BDE2
:1002300081BC407C01B4C074807541B50077C1B702
:1002400081B640760072C1B281B3407301B1C07112
:10025000807041B00050C190819140510193C053D2
:10026000805241920196C056805741970055C195E2
:1002700081944054019CC05C805D419D005FC19FA2
:10028000819E405E005AC19A819B405B0199C05992
:10029000805841980188C04880494189004BC18BF2
:1002A000818A404A004EC18E818F404F018DC04DE2
:1002B000804C418C0044C184818540450187C04702
:1002C000804641860182C042804341830041C18112
:1002D0008180404000000000963007772C610EEED0
:1002E000BA51099919C46D078FF46A7035A563E98D
:1002F000A395649E3288DB0EA4B8DC791EE9D5E0B4
:1003000088D9D2972B4CB609BD7CB17E072DB8E7B2
:10031000911DBF906410B71DF220B06A4871B9F307
:10032000DE41BE847DD4DA1AEBE4DD6D51B5D4F440
:10033000C785D38356986C13C0A86B647AF962FDA5
:10034000ECC9658A4F5C0114D96C0663633D0FFAF2
:10035000F50D088DC8206E3B5E10694CE44160D5F8
:10036000727167A2D1E4033C47D4044BFD850DD2E2
:100370006BB50AA5FAA8B5356C98B242D6C9BBDBF5
:1003800040F9BCACE36CD832755CDF45CF0DD6DCF0
:10039000593DD1ABAC30D9263A00DE518051D7C897
:1003A0001661D0BFB5F4B42123C4B3569995BACF22
:1003B0000FA5BDB89EB802280888055FB2D90CC643
:1003C00024E90BB1877C6F2F114C6858AB1D61C1BC
:1003D0003D2D66B69041DC760671DB01BC20D298DB
:1003E0002A10D5EF8985B1711FB5B606A5E4BF9F68
:1003F00033D4B8E8A2C9077834F9000F8EA809965B
:1004000018980EE1BB0D6A7F2D3D6D08976C6491C5
:10041000015C63E6F4516B6B62616C1CD8306585DE
:100420004E0062F2ED95066C7BA5011BC1F40882BB
:1004300057C40FF5C6D9B06550E9B712EAB8BE8BFC
:100440007C88B9FCDF1DDD62492DDA15F37CD38C85
:10045000654CD4FB5861B24DCE51B53A7400BCA383
:10046000E230BBD441A5DF4AD795D83D6DC4D1A4B5
:10047000FBF4D6D36AE96943FCD96E34468867AD8C
:10048000D0B860DA732D0444E51D03335F4C0AAA2B
:10049000C97C0DDD3C710550AA41022710100BBE2E
:1004A00086200CC925B56857B3856F2009D466B975
:1004B0009FE461CE0EF9DE5E98C9D9292298D0B0AA
:1004C000B4A8D7C7173DB359810DB42E3B5CBDB757
:1004D000AD6CBAC02083B8EDB6B3BF9A0CE2B603D8
:1004E0009AD2B1743947D5EAAF77D29D1526DB048D
:1004F0008316DC73120B63E3843B64943E6A6D0DD8
:10050000A85A6A7A0BCF0EE49DFF099327AE000A22
:10051000B19E077D44930FF0D2A3088768F2011EB5
:10052000FEC206695D5762F7CB67658071366C194C
:10053000E7066B6E761BD4FEE02BD3895A7ADA106D
:10054000CC4ADD676FDFB9F9F9EFBE8E43BEB7174E
:10055000D58EB060E8A3D6D67E93D1A1C4C2D838D8
:1005600052F2DF4FF167BBD16757BCA6DD06B53F3E
:100570004B36B248DA2B0DD84C1B0AAFF64A03367D
:10058000607A0441C3EF60DF55DF67A8EF8E6E31FC
:1005900079BE69468CB361CB1A8366BCA0D26F2545
:1005A00036E2685295770CCC03470BBBB916022292
:1005B0002F260555BE3BBAC5280BBDB2925AB42BA7
:1005C000046AB35CA7FFD7C231CFD0B58B9ED92CBC
:1005D0001DAEDE5BB0C2649B26F263EC9CA36A7521
:1005E0000A936D02A906099C3F360EEB85670772D8
:1005F00013570005824ABF95147AB8E2AE2BB17B3F
:10060000381BB60C9B8ED2920DBED5E5B7EFDC7CC5
:1006100021DFDB0BD4D2D38642E2D4F1F8B3DD681C
:100620006E83DA1FCD16BE815B26B9F6E177B06F17
:100630007747B718E65A0888706A0FFFCA3B066604
:100640005C0B0111FF9E658F69AE62F8D3FF6B6191
:1006500045CF6C1678E20AA0EED20DD75483044E33
:10066000C2B30339612667A7F71660D04D476949C1
:10067000DB776E3E4A6AD1AEDC5AD6D9660BDF40D4
:10068000F03BD83753AEBCA9C59EBBDE7FCFB24787
:10069000E9FFB5301CF2BDBD8AC2BACA3093B3536C
:1006A000A6A3B4240536D0BA9306D7CD2957DE5475
:1006B000BF67D9232E7A66B3B84A61C4021B685D4E
:1006C000942B6F2A37BE0BB4A18E0CC31BDF055AC7
:1006D0008DEF022D5265626F6F742E2E2E0A000070
:1006E0004552524F523A2046696C65204669726DF8
:1006F00057617265206F7220426C6F636B20736963
:100700007A652E0A00000000434D445F46575F445F
:100710004154413A207061636B65745F66775F6432
:100720006174615F636F756E7428256429203E20B3
:100730006E5F7061636B65745F746F5F626C6F6333
:100740006B282564290A000052756E204150502EF6
:100750002E2E0A004552524F523A20466C61736861
:1007600020756E6C6F636B2E0A000000464C41537F
:1007700048204552524F523A20756E6C6F636B0A97
:1007800000000000464C4153483A20756E6C6F6380
:100790006B20210A00000000464C4153482045527E
:1007A000524F523A20657261736520736563746FAE
:1007B0007220307825582E0A00000000464C415324
:1007C000483A20657261736520736563746F7220A7
:1007D00030782558204F4B2E0A0000005374617268
:1007E0007420455241534520464C4153483A2061BC
:1007F000707020617265612E0A000000537461728E
:100800007420455241534520464C4153483A206696
:1008100077636F707920617265612E0A00000000B5
:1008200053746172742077726974652064617461B5
:1008300020746F20464C4153482C20414452203DA7
:10084000203078253038782C2053495A45203D20D7
:1008500025640A0046575F434F50593A20465720B7
:10086000486561646572206E6F7420666F756E6492
:100870002E0A00004865616420466F756E642E0A7A
:10088000000000004865616420496E666F3A0A0006
:100890004856657273696F6E203D2025640A00001A
:1008A000536F667454797065203D204D6173746593
:1008B0007220424F4F540A00536F6674547970652A
:1008C000203D204D6173746572204150500A000034
:1008D000536F667454797065203D205365636F6E65
:1008E0006461727920424F4F540A0000536F66745E
:1008F00054797065203D205365636F6E6461727931
:10090000204150500A000000566572446174612015
:10091000203D2025642E25642E25640A0000000059
:1009200046696C65206C656E203D202575206279D6
:100930007465730A000000004352433332202020C4
:10094000203D20253038580A000000004552524F03
:10095000522046572048454144455220464F524D6B
:100960004154202121210A004552524F523A20730E
:100970006F66742076657273696F6E3A0A000000C4
:100980006669726D7761726520534F46545F5645B4
:10099000525F48203D2025642020213D20544849B5
:1009A000532056455253494F4E20534F46545F569D
:1009B00045525F48203D2025640A00004552524FB1
:1009C000523A2066772073697A65203D2025640AB3
:1009D000000000004552524F523A204669726D772E
:1009E00061726520697320424F4F542021212125D7
:1009F000640A00004552524F523A206677207369CC
:100A00007A65203D2025642C2046575F4150505F79
:100A100053495A45203D2025640A00004552524F53
:100A2000523A2048656164657220736F6674207461
:100A3000797065203D2025640A0000004352432060
:100A4000436865636B3A0A0043524333323A2046A7
:100A5000696C6528202530385820292025732043CB
:100A6000616C632044617461282025303858202946
:100A7000203A2025730A000020203D2000000000BD
:100A800020213D2000000000204F6B2000000000CE
:100A9000204552524F522021212120004552524FD1
:100AA000523A206372633332206661696C2E0A0009
:100AB00045726173652041505020617265612E2E30
:100AC0002E0A0000434F50592046575F434F50595C
:100AD000202D3E204150502E0A00000045726173C7
:100AE000652046575F434F505920617265612E2E35
:100AF0002E0A00005245424F4F542E2E2E0A00005F
:100B00004649524DC000000028323031392D30396D
:100B10002D31372037376133333964290000000025
:100B20004465766963652073746172742E0A0000EF
:100B30003D3D3D3D3D3D3D3D3D3D3D3D3D3D3D3DE5
:100B40003D3D3D3D3D3D3D3D3D3D3D3D3D3D3D3DD5
:100B50003D3D3D3D3D3D3D3D3D3D3D3D3D3D3D3DC5
:100B60003D3D3D3D3D3D3D3D3D3D3D3D3D3D3D3DB5
:100B70003D3D3D3D3D3D3D3D3D3D3D3D3D3D3D3DA5
:100B80000D0A000020536F66742056657273696FFA
:100B90006E203D20257325642E25642E25640A00D1
:100BA00020486172642056657273696F6E203D2023
:100BB00025730A0020446576696365204E616D6582
:100BC00020203D2025730A002047495420636F6D83
:100BD0006D69742020203D2025730A0020536F6624
:100BE000742074797065202020203D2025730A0030
:100BF0002053697A652020202020202020203D20BD
:100C000025750A0020435243333220202020202023
:100C100020203D203078253038580A00434845438D
:100C20004B206669726D7761726520746F2046573C
:100C30005F434F505920726567696F6E3A0A000032
:100C40000A57616974207570677261646520736FFB
:100C50006674776172652066726F6D2050432E2E28
:100C60002E0A00005741524E494E473A20466972BB
:100C70006D77617265206368656368204C454E201E
:100C80002620435243202D204F464620210A0000B3
:100C900053563A0048563A312E302E313900000072
:100CA000444F4F525F4452565F424F4F5400000032
:100CB00070B5FFB081B004000D0068461B4980226A
:100CC000920000F04BF800231A0000231900A942FB
:100CD0000ED2635C18005040C0B292B2120A1600E5
:100CE0006A4680B202234343D25A7240491CEEE75F
:100CF000100080B27FB001B070BD70B50200002559
:100D0000ED432C0000252B008B420CD2D55C280033
:100D10006040C0B2240A2600054C042545436459AE
:100D200074405B1CF0E7200070BD0000D400000898
:100D3000D4020008124207D08B0706D00B78491C5A
:100D40000370401C521EF7D87047830706D00B78FB
:100D5000491C0370401C521EF9D1704770B4103A00
:100D600003D378C9103A78C0FBD2530701D318C90E
:100D700018C001D508C908C0D20704D30B88038066
:100D8000891C801C002A01D50B78037070BC704749
:100D900038B5002400F038FA05002900334800F087
:100DA00065FA33480078012829D1002030490870BD
:100DB0002E48007CC0B20009C0B2012802D0002039
:100DC0002C4908702948407CCA2801D10120040020
:100DD00029482A490860294800790007000F274957
:100DE000087126480079F021014003200843234977
:100DF00008712249224800F047F81E4908701D4832
:100E00000078012815D100201A4908701D4800F00B
:100E10000DFB212802D200F0E2FBF7E71748194941
:100E2000C860202017490882164800F01FFB00F018
:100E3000D6FB144800F011FB002805D0A648007826
:100E4000002801D100F0CBFBA4480078002809D08D
:100E5000A34800F06AFE00F0C2FB642000F087FEA9
:100E600001F098F92000C0B232BD0000C813002084
:100E7000F8130020DC1400200CF0C3F3FC13002056
:100E8000D413002074140020FEB505000C000020CF
:100E90000290280001F084F9210001F08DF92879F1
:100EA0000007000F21790907090F0001084320718D
:100EB0002879C0B200092179F0220A400007000F0A
:100EC0001043207168796071A81D864908606846E2
:100ED0006979417068464078C8280CD000D2F8E0A3
:100EE000CA2820D01CD3CC2800D19CE053D3CD28D5
:100EF00000D1E0E0EDE0A01D7B49086000207A49C8
:100F0000096808700120784909684870002076490E
:100F100009688870132074490968C8700120D9E0F5
:100F200001F038F9D5E000207049086000207049D0
:100F300008700926A81D0190A71D320001993800EC
:100F4000FFF7F8FEA01D6B4908606B486B4908600D
:100F50006848006801F024F96949884208D2654868
:100F60000068001D01F01CF980218900884207D02B
:100F7000644800F0E9FD01205E490968087208E054
:100F800000205C490968087201F0A7F916205E4943
:100F9000086001209EE055480068401C53490860E5
:100FA000594800685149096888420ED2564802687B
:100FB0004E480168554800F0B8FD00204C490870C3
:100FC000022053490870002084E0484800684E49D8
:100FD0000968884201D2182607E0802080004A492B
:100FE0000968491E18225143461A40480068401EAD
:100FF00018214843474908603A480068019046482C
:10100000444909684718320001993800FFF792FEF9
:10101000364800683C490968884202D101203449B9
:101020000870002056E0002030490860A01D3B49B0
:101030000860324800683A49884205D301202949AE
:1010400009680870012045E031480078002806D082
:101050002F48007831490968087001203AE0244897
:101060000078002805D102202C4909680870012069
:1010700030E08022920028492048006801F05EF9A3
:10108000694608706846007800280ED10020234980
:1010900009680870194800688021890040181749BC
:1010A000086000201149086003E003201B4909681B
:1010B000087001200EE0A01D1A4908600E4801F0DA
:1010C00091F9184909680870012004490870012045
:1010D00000E00020FEBD0000E1140020DD1400202F
:1010E000D406000894140020A0140020A4140020AA
:1010F000DF1400209014002000400208B0140020EB
:1011000001C00100E0060008A8140020080700083C
:10111000DE140020AC1400202811002098140020B8
:10112000000004089C1400200121C206D20E914048
:10113000444A11607047F0B540B2002821D5424CB6
:1011400040B20207120F083A9508042255433E4A5E
:1011500040B203071B0F083B9B0804267343D25879
:10116000FF238607B60F08277E43B3409A438B01BF
:10117000DBB28607B60F08277E43B34013436351A3
:101180001AE0324A40B2830804246343D258FF2352
:101190008407A40F08256C43A3409A438B01DBB25C
:1011A0008407A40F08256C43A3401343274A40B289
:1011B000840804256C431351F0BD10B50400601E73
:1011C00080214904884201D301200EE0601E20499D
:1011D000086003210020C043FFF7ADFF00201D4938
:1011E000086007201C490860002010BD80B51B481E
:1011F000FFF7E3FF00210020C043FFF79CFF002022
:10120000C043FFF791FF01BD16480068704700B565
:1012100014480068401C1349086013480068401CCB
:101220001149086010480068FA218900884207D1F6
:1012300000200D4908600A480068401C0849086001
:1012400000BD000000E100E01CED00E000E400E073
:1012500014E000E018E000E010E000E03F1F0000B4
:10126000C0140020BC140020C4140020F2B584B0C7
:10127000040020000C300290002001900026002580
:1012800000273020205C012800D1CBE02079002805
:1012900007D002282DD016D3042800D19CE056D3C5
:1012A000F4E70020A060002030216054206800F0A6
:1012B000D4F86946088068460088002800D1B1E06B
:1012C00002202071E2E7206800F0C7F86946088034
:1012D000684600882021A268891A884202D3022029
:1012E0002071D3E70498E16A884201D3002020717D
:1012F00098E0206800F0B1F86946088068460088E8
:101300002021A268891A884204D32020A168401AAB
:10131000070002E06846008807003800216808835B
:10132000A06820180C3021684861206800F0C3F8DC
:10133000A068C019A060A068202802D103202071F5
:10134000A4E704983230E062012020716AE002983C
:1013500000F026FF3449884202D10420207195E72D
:10136000012006001C2E27D2A019017BA019407B6A
:1013700000020843A119897B09040143A019C07B1D
:1013800000060843019001982749884212D10020A5
:1013900005002020801B854206D2A8192018007B5A
:1013A000611908736D1CF4E72020801BA0600120E8
:1013B000207137E0761CD5E700200500042D06D209
:1013C00060192821405C611908736D1CF6E7042040
:1013D000A0600120207125E03120205C00280AD186
:1013E000002020710120302160540498FA218900E6
:1013F0004018E06216E0202120000C30FFF758FC76
:1014000000280AD100202071012030216054049866
:10141000FA2189004018E06204E000203021605485
:101420000020207105B0F0BD0CF0C3F300B5C188F9
:101430000289914201D180880EE00189C2889142DF
:1014400006D28188C288891A0089081880B203E010
:101450000189C088081A80B200BD10B504002000C0
:10146000FFF7E4FFA188081A80B210BD38B5040068
:101470002000FFF7DBFF218A80B2884201D20120E1
:1014800018E0002005002800218A80B2884210D28E
:10149000E068ADB2405D2168E2888854E088401C75
:1014A000E080E088A188884201D30020E0806D1CA4
:1014B000E9E7002032BD38B504002000FFF7B6FF91
:1014C000A18880B2081A218B884201DA012018E035
:1014D000002005002800218B80B2884210D22068AD
:1014E0002189405C6169ADB248552089401C20814A
:1014F0002089A188884201D3002020816D1CE9E762
:10150000002032BD10B502000020030018000C00BE
:1015100080B2A4B2A0420AD21089401C1081108966
:101520009488A04201D3002010815B1CEEE70020CC
:1015300010BD38B505000C002800FFF777FF022822
:1015400001DA01200CE02868E9884454E888401C4E
:10155000E880E888A988884201D30020E88000203C
:1015600032BD0100002008810020C88000207047A3
:1015700010B5002491480068C0072FD43D4800787A
:1015800000282BD13C48C0883B490989884225D096
:101590003A483949098940180400374800893649D2
:1015A000C988884207D23448C08833490989401A1B
:1015B0003349088006E08020C0002F490989401A7D
:1015C0002F49088001202B4908702D4802882100EE
:1015D0007A4801F061F8794801F063F810BD10B560
:1015E000002477480068C0072ED476480078002889
:1015F0002AD17548C08874490989884224D0734823
:1016000071490989401804006F4800896E49C988EA
:10161000884207D26C48C0886B490989401A6C49D6
:10162000088005E0A02068490989401A68490880B7
:10163000012064490870664802882100604801F072
:101640002BF85F4801F02DF810BD10B5040061487B
:10165000FFF7ECFE022806DA064800780028F6D1EB
:10166000FFF786FFF3E72100C9B25A48FFF761FF91
:1016700010BD0000E01400203C140020080A0020E7
:10168000D814002038B5002500248021490552488F
:1016900001F011F80121514801F00DF8504800689F
:1016A000032188434E4908604E484A49086080201B
:1016B000C000484988804748FFF753FF4A484B49D4
:1016C000086000F037FC4A484A490860C82080009A
:1016D000484988804748FFF744FF3C483A4908603A
:1016E000A020394988803848FFF73BFF0020424955
:1016F00008714048404908600020404908700020B7
:101700003F490870FFF772FD00F09CFA3D4800F079
:101710000CFA3D4800F009FA132000900023012242
:101720003A493B4800F001FA3A493B4800F0FDF9DC
:101730003A493B4800F0F9F93A4801683A4800F064
:10174000F4F93A493A4800F0F0F93A4801683A4861
:1017500000F0EBF939480168394800F0E6F92A4809
:1017600000F0E3F9374800F0E0F9374800F03AFEBE
:10177000364800F0DAF9364800F0D7F9FFF744FDB3
:10178000050000200400FFF703FB012802D0E4B2AB
:10179000002C02D0FFF7FCFAFCE7FFF735FD29002B
:1017A00000F0F0F9FA2189008842ECD3E4B2002C71
:1017B000E9D100F00BFD01200400E4E74400024001
:1017C0001C000240E11400207414002028130020A3
:1017D000DA1400203C1400201C10024018100240B3
:1017E00000000140080A00204B160008C814002021
:1017F000080E002058140020C8130020F913002000
:10180000F8130020200B0008300B0008900C000893
:10181000840B0008940C0008A00B0008A00C000822
:10182000B40B000800020020C80B0008C400000828
:10183000DC0B0008C0000008F00B00081C2E00089C
:10184000040C00081C0C000800400208400C0008B2
:10185000640C000810B50400E4B20A2C02D10D207B
:10186000FFF7F8FF16480068002813D015480068F5
:101870001549096888420CD2114800680470104864
:101880000068401C0E4908600E480068401C0D4965
:10189000086008E00D480068002804D02000C0B2AD
:1018A0000A490968884710BD10B50400207800284F
:1018B00004D02078FFF7CEFF641CF7E710BD0000CE
:1018C000CC140020D4140020D0140020C814002010
:1018D000F0B58BB006000D00307869460870761CB4
:1018E00068460078002800D11DE168460078252868
:1018F00004D068460078FFF7ADFFEDE700200290C6
:10190000307869460870761C68460078302806D121
:1019100001200290307869460870761C09E068461C
:1019200000782D2805D10220029030786946087091
:10193000761C0020049068460078302810DB68464A
:1019400000783A280CDA04980A2148436946097855
:10195000401830380490307869460870761CEAE701
:10196000684600786C2803D0684600784C2807D178
:101970000298042101430291307869460870761C70
:1019800068460078002800D1CDE06846007807005E
:10199000FFB2612F00DB203FFFB2380042283AD06F
:1019A000432832D044283CD04F2837D050283BD051
:1019B000532804D0552834D0582835D037E028682B
:1019C0002D1D0690002004000698005D002801D01F
:1019D000641CF9E70298800709D420000400641C05
:1019E0000499884203D22020FFF734FFF2E70698DB
:1019F000FFF75AFF20000400641C0499884203D2B8
:101A00002020FFF727FFF5E766E728682D1DC0B205
:101A1000FFF720FF60E7022005900DE00820059009
:101A20000AE00A20059007E01020059004E06846CF
:101A30000078FFF70FFF4FE70298400702D52868AC
:101A40002D1D07E0FFB2442F02D128682D1D01E0B3
:101A500028682D1D0390FFB2442F09D10398002858
:101A600006D503984142039102980821014302914F
:101A7000002001900398059900F026FE0F000398BE
:101A8000059900F021FE0390FFB20A2F07DB68469C
:101A90000078782801D1272000E007203F1838007F
:101AA000303007A9019A88540198401C019003988E
:101AB000002802D001981028DCD30298000706D530
:101AC0002D2007A9019A88540198401C0190019883
:101AD00004000298C00701D5302700E020270298B3
:101AE00080070AD420000400641C0499884204D2B0
:101AF0003800C0B2FFF7AEFEF1E70198401E01903A
:101B000007A80199405CFFF7A5FE01980028F4D1D1
:101B100020000400641C0499884200D3DCE62020E5
:101B2000FFF798FEF4E70BB0F0BD0EB430B505003A
:101B300003A8040021002800FFF7CAFEFFF718FDE4
:101B4000029830BC04B000470EB430B5050000F078
:101B500012FE03A8040021002800FFF7B9FE00F0E0
:101B60000BFEFFF705FD029830BC04B0004738B506
:101B70000400FFF749FB05002D19FFF745FBA842BC
:101B8000FBD331BD00B5884201D3401A03E00022E7
:101B9000D243511A081800BD0121C206D20E91404D
:101BA000C14A11607047F0B540B2002821D5244CDD
:101BB00040B20207120F083A950804225543204A02
:101BC00040B203071B0F083B9B0804267343D258FF
:101BD000FF238607B60F08277E43B3409A438B0145
:101BE000DBB28607B60F08277E43B3401343635129
:101BF0001AE0AE4A40B2830804246343D258FF235C
:101C00008407A40F08256C43A3409A438B01DBB2E1
:101C10008407A40F08256C43A3401343A34A40B292
:101C2000840804256C431351F0BD00B5BFF34F8FFA
:101C30009F48A0490860BFF34F8F00BFFDE7000039
:101C40001CED00E0FEB5802189029B4800F033FDC9
:101C50008021C901994800F02EFD0121964800F02D
:101C60002AFD012002900120019003200090002312
:101C70000222802189009020C00500F07EFD012015
:101C80000290012001900320009000230222802175
:101C9000C9009020C00500F070FD00200400200065
:101CA0000824044304208443200002240443200029
:101CB00010240443202084434020844320008024B7
:101CC000044320007E4C044020007E4C04400094DD
:101CD000002300227C497D4800F0D4FC05210A2025
:101CE000FFF761FF0A20FFF757FF01208443082018
:101CF00084432000042404432000022404431020D1
:101D00008443200020240443402084432000802476
:101D1000044320006A4C044020006A4C0440200028
:101D20006B4C0440009420236A4A6B496B4800F0D6
:101D3000A9FC05210A20FFF736FF0A20FFF72CFF38
:101D4000664800F0AEFC0020654908600020654947
:101D5000086000206449086000206449086045204C
:101D600062490860B42080016149086000200600D3
:101D70001020864330005F4E064030005E4E064025
:101D800030005E4E064030005D4E06403000504E42
:101D9000064030005B4E064030005B4E064030008F
:101DA0005A4E064030005A4E06403000594E06400A
:101DB0003000594E06403000584E06403000802614
:101DC000360406433000564E064036013609454873
:101DD0000660002007000120874308208743380061
:101DE000402707433800802707433800414F07400A
:101DF0003800414F07403800404F074038008027E7
:101E00003F010743380080277F01074338008027C0
:101E1000BF0107433800434F07403800394F0740A0
:101E200031480760002005002800012505432800EF
:101E3000042505432800082505431020854320205C
:101E4000854340208543802085432800294D054057
:101E50002800294D05402800284D05402800284D20
:101E600005402800304D05402800304D0540280031
:101E70002C4D05402800234D054028002C4D0540E1
:101E80002800A44D054028008025ED0405432800C6
:101E9000A14D05401248056005211B20FFF783FE78
:101EA0001B20FFF779FEF7BD00E100E000E400E051
:101EB0000400FA050CED00E0141002401810024076
:101EC000FFFCFFFFFFF3FFFF283801401C0002402A
:101ED000FFCFFFFF1C1400202438014030000240D7
:101EE0000038014004380140083801400C380140F6
:101EF00014380140FFFEFFFFFFFDFFFFFFFBFFFF68
:101F0000FFF7FFFFFF7FFFFFFFFFFEFFFFFFFDFF6C
:101F1000FFFFFBFFFFFFF7FFFFFFEFFFFFFF9FFF4D
:101F2000FFFFFFF0FFBFFFFFFFEFFFFFFFDFFFFF40
:101F3000FFFFE0FFFEB580218902784800F0BBFB7F
:101F40002021774800F0B7FB0121744800F0B3FB73
:101F5000052002900120019003200090002302221E
:101F600010219020C00500F008FC00200700380078
:101F70000827074304208743380002270743380017
:101F800010270743202087434020874338008027BD
:101F900007433800634F07403800634F074038005D
:101FA000624F07400097002300226149614800F01A
:101FB00069FB61480068D021090201435E48016065
:101FC00005210B20FFF7EFFD0B20FFF7E5FD0020BB
:101FD0005A49086000205A490860002059490860A1
:101FE0000020594908604520574908600020050035
:101FF000102085432800554D05402800544D0540CC
:102000002800544D05402800534D05402800474DF9
:1020100005402800514D05402800514D054028003D
:10202000504D05402800504D054028004F4D0540BB
:1020300028004F4D054028004E4D054028004E4DCC
:10204000054028004D4D05402D012D093C480560F7
:102050000020060001208643082086434020864356
:102060003000802606433000384E06403000384E9F
:1020700006403000374E06403000802636010643C9
:10208000300080267601064330008026B6010643E4
:1020900030003B4E06403000304E06402948066076
:1020A0000020040020000124044304208443200075
:1020B0000824044310208443202084434020844388
:1020C000802084432000214C04402000204C044008
:1020D0002000204C044020001F4C04402000294CCC
:1020E00004402000284C04402000254C04402000DF
:1020F0001A4C04402000254C04402000054C0440AC
:102100002000234C04402000034C04400B48046092
:10211000F7BD0000FFFF1FFCFFFFFFEF14100240A0
:1021200018100240FFFCFFFFFFF3FFFFFFCFFFFF90
:102130002814014044000240A8000240001401405D
:1021400004140140081401400C140140FFFEFFFF7D
:10215000FFFDFFFFFFFBFFFFFFF7FFFFFF7FFFFF1D
:10216000FFFFFEFFFFFFFDFFFFFFFBFFFFFFF7FF8E
:10217000FFFFEFFFFFFF9FFFFFFF7FFFFFFFFFF06E
:10218000FFBFFFFFFFEFFFFFFFDFFFFFFFFFE0FFEE
:10219000FFFFFFFB80B572B6FFF747FD01BDFEE70D
:1021A000C3788278417800781B021A43090212042E
:1021B000084310437047FEE784460870000A4870E1
:1021C000000A8870000AC8706046704770B56C4895
:1021D000FFF7ABFCFA204000FFF7C9FC002069497B
:1021E0000860002068490860002068490860684865
:1021F00000F0A8FB674800F0A5FB674800F006FA6E
:10220000664800F003FA664800F000FA72B66548C6
:102210000568654C654E2A0021003000FEF78AFDF6
:102220006348006803210143614801605E4800681B
:1022300080F308885F4800685F4908605E4800686E
:102240005E4908605D480068804770BD70B5040055
:102250000E00150000F082FB002804D05848FFF75C
:1022600064FC012007E02A003100200000F066F83D
:1022700000F089FB002070BDF8B500244A4F554D91
:102280005548FFF752FC00F069FB002804D04D4888
:10229000FFF74BFC01201FE04B48FFF746FC3E00D8
:1022A000AE4212D2300000F076FB002805D031009B
:1022B0004648FFF73AFC641C03E031004448FFF74E
:1022C00034FC802000013618EAE7E4B2002C01D18A
:1022D000002000E00120C0B2F2BDF8B500243D4F5F
:1022E0003E4D3F48FFF721FC00F038FB002804D0AA
:1022F0003448FFF71AFC01201FE03348FFF715FCB4
:102300003E00AE4212D2300000F045FB002805D05E
:1023100031002E48FFF709FC641C03E031002C4813
:10232000FFF703FC802000013618EAE7E4B2002C36
:1023300001D1002000E00120C0B2F2BDF3B581B0B0
:102340001700019D029C3A0029008E48FFF7EDFB23
:10235000F80703D53800401C009000E000970020EB
:10236000060000984008864207D22188280000F025
:1023700040FBAD1CA41C761CF3E70020FEBD000052
:102380004807000810E000E014E000E018E000E07A
:1023900000140140003801401C000240300002409F
:1023A00044000240040B00080080000800000020E8
:1023B0000000014004800008B4140020B81400207C
:1023C000540700086C0700088407000898070008F5
:1023D000BC07000800400208DC07000800000408F1
:1023E000FC07000870B582B005002C002068664923
:1023F0000968884204D06548FFF797FB0120BFE0D9
:102400006348FFF792FB6348FFF78FFB2079C0B268
:1024100002282DD121796048FFF787FBA0680028AA
:1024200002D15E48FFF781FBA068012802D15C4819
:10243000FFF77BFBA068022802D15A48FFF775FB23
:10244000A068032802D15848FFF76FFBE379A2790F
:1024500061795648FFF769FBE1685548FFF765FB6E
:1024600021695448FFF761FB6079012805D10EE02E
:102470005148FFF75AFB012082E05048FFF755FB17
:10248000012261794E48FFF750FB012078E0E068B7
:102490004C49884205D3E1684B48FFF746FB0120D1
:1024A0006EE0A068002805D0022807D004D30328D6
:1024B0000BD023E0012063E0012061E04348FFF7F7
:1024C00034FBFFF70AFF01205AE0E0683D498842EB
:1024D00007D3E0225202E1683D48FFF726FB0120C6
:1024E0004EE0E16828001430FEF707FC060039488A
:1024F000FFF71BFB2069B04208D105E0A168364810
:10250000FFF713FB01203BE0344800E03448216929
:10251000B14201D1334A00E0334A009033002169CF
:102520003248FFF702FB2069864204D03048FFF7AB
:10253000FCFA012024E0A068022803D1FFF7CDFEB9
:1025400001201DE0A068032819D12A48FFF7EDFA01
:10255000FFF792FE2848FFF7E8FAE2682749284883
:10256000FFF774FE2748FFF7E0FAFFF7B6FE2648AC
:10257000FFF7DBFA6420FFF7FAFAFFF70BFE002003
:1025800076BD000020080008000B00085408000871
:10259000740800088408000890080008A0080008D3
:1025A000B8080008D0080008EC080008080900086E
:1025B00020090008380900084C09000868090008CB
:1025C0008009000801C00100BC090008D409000806
:1025D000F40900083C0A00081C0A0008880A0008E0
:1025E000900A0008780A0008800A0008480A0008D3
:1025F0009C0A0008B00A0008C40A00081440020837
:1026000000800008DC0A0008F40A000800B5002178
:102610000160002181600021C160002141601349F7
:10262000884203D10F21124A11601EE011498842ED
:1026300003D1F0210E4A116017E00F49884204D1FE
:10264000F02109010A4A11600FE00C49884204D1C7
:10265000F0210902064A116007E00949884204D1C5
:10266000F0210903024A1160FFE700BD08000240A3
:10267000040002401C0002403000024044000240BE
:102680005800024030B4029C002505608160C260A1
:102690004360046030BC70474260C1607047416075
:1026A0007047016801220A430260704701680122F5
:1026B00091430160704781B002680A43026002687A
:1026C0000A40009201B070470022030A8B420BD2ED
:1026D00003098B4219D243088B422ED2411A00D2F1
:1026E0000146524110467047FF2209023FD01206B0
:1026F0008B4205D3121209028B4201D31212090236
:1027000003098B4219D300E0090AC3098B4201D3A4
:10271000CB01C01A524183098B4201D38B01C01AED
:10272000524143098B4201D34B01C01A5241030964
:102730008B4201D30B01C01A5241C3088B4201D313
:10274000CB00C01A524183088B4201D38B00C01AC0
:10275000524143088B4201D34B00C01A5241884278
:1027600000D3401A5241CFD201461046704708B5F7
:1027700000F072F908BD70477047F7B50899099ADB
:102780000A9C6D46AD882D072D0F6E46B688002E2B
:102790005ED0761E2CD0761E2DD0B61E2ED0361FC3
:1027A0002FD0083E30D0103E31D0203E32D0403EB7
:1027B00033D0803E34D080277F00F61B33D0802773
:1027C000BF00F61B32D08027FF00F61B31D08027D8
:1027D0003F01F61B30D080277F01F61B2FD08027CA
:1027E000BF01F61B2ED08027FF01F61B2DD030E055
:1027F000002635002DE0012635002AE002263500AE
:1028000027E00326350024E00426350021E00526D4
:1028100035001EE0062635001BE00726350018E0CF
:102820000826350015E00926350012E00A26350095
:102830000FE00B2635000CE00C26350009E00D26D4
:10284000350006E00E26350003E00F26350000E0D7
:1028500077E00668B446032702266E43B740664613
:10286000BE4306600668B4466E46377A02266E435B
:10287000B74066463743076046680127AF40BE430E
:1028800046604668DBB21F00AF403743476086684A
:10289000B446032702266E43B7406646BE438660B1
:1028A0008668B446C9B202266E430F00B74066463A
:1028B00037438760C668B446032702266E43B74095
:1028C0006646BE43C660C668B446D2B202266E43B0
:1028D0001700B74066463743C760EDB2082D14DADB
:1028E000066AB4460F2704266E43B7406646BE43C9
:1028F0000662066AB446E4B227073F0F04266E4319
:10290000B7406646374307621BE0476A00970F26C9
:10291000B4462F00083F042677436646BE40009F1A
:10292000B7434762476A0097E4B22607360FB446BA
:102930002F00083F042677436646BE40009F3E4373
:102940004662F7BD002101600021416000218160E5
:102950000021C160002141617047FEE700B53848A1
:10296000006800060DD537483749086037483649B2
:10297000086033480068000601D5012002E000200D
:1029800000E0002000BD2E480068802101432C4853
:1029900001600020704700B501002D480068C007A5
:1029A00001D5012024E02648006802220243244881
:1029B0000260284801602248006840220243204803
:1029C000026023480068C007FBD4214800688006E5
:1029D00007D51B48006802229043194A1060002066
:1029E00006E01748006802229043154A1060012053
:1029F00000BD00B5020016480068C007FBD41048AF
:102A00000068012303430E480360118010480068EA
:102A1000C007FBD40E480068800602D520200C4B6E
:102A200018600748006801239843054B1860084860
:102A30000068400701D5012000E0002000BD000033
:102A4000102002402301674504200240AB89EFCDEE
:102A50000C200240142002407047FEE701488047E6
:102A600001480047552C0008812D000800B5FEE7FD
:102A700000B5FEE700B5FEE700B5FEE780B5FEF75E
:102A8000C6FB01BD10B562480068400516D5614817
:102A900000688021C90001435E4801605E48FEF77E
:102AA000C5FC0400A4B2102C08D35C485A49C86085
:102AB0001020594908825848FEF7D8FC544800684D
:102AC000800516D55348006880218900014351488C
:102AD00001605148FEF7AAFC0400A4B2102C08D3F0
:102AE0004F484D49C86010204B4908824A48FEF7BC
:102AF000BDFC47480068800610D546480068102194
:102B0000014344480160474801884748FEF7FAFC02
:102B10000020464908704648FFF7C8FD10BD70B553
:102B200044480068800702D50220434908604148B4
:102B30000068000702D508203F4908603D4800684A
:102B4000000545D5802000013B4908603B48FFF760
:102B5000ADFD3B48006804002007000F002803D1AA
:102B60003648FFF79EFD33E0112C15D32020001BC3
:102B700005002948FEF75AFC0600B6B22800401CA2
:102B800086421ED325482449C8602800224908826D
:102B90002148FEF76BFC14E01020001B05001E48C6
:102BA000FEF744FC0600B6B22800401C864208D35B
:102BB0001B481949C8602800174908821648FEF7C3
:102BC00055FC20211D48FFF76AFD1C48FFF769FDF1
:102BD00070BD80B50E480068800418D50D480068A7
:102BE0008021490101430B480160164801881648BD
:102BF000FEF788FC0020154908701548FFF756FDC0
:102C00001148FEF72AFC002801D0FEF7B1FC01BDF7
:102C10000000024004000240581400201C14002050
:102C20002C140020DA14002074140020E114002079
:102C30001C0002401C380140203801403000024096
:102C400034000240D81400203C140020E01400207E
:102C500044000240194800680121014317480160FF
:102C6000174800681749014015480160134800687B
:102C7000154901401148016010480068134901409E
:102C80000E4801600E480068114901400C4801607F
:102C9000104800680F2188430E4908600E480068FC
:102CA0000E4901400C4801600D480068012188432D
:102CB0000B49086000200B49086070470010024073
:102CC000041002400CB8FF08FFFFF6FEFFFFFBFFF9
:102CD000FFFFC0FF2C10024030100240ECFEFFFF4F
:102CE000341002400810024000F00BF8002801D018
:102CF00000F00AF8002000BF00BFFEF7C3FC00F0A0
:102D000017F801207047FEE710B5074979441831DC
:102D1000064C7C44163404E0081D0A68891888476C
:102D20000100A142F8D110BDD0000000F000000069
:102D300080B500F001F801BD0746384600F002F802
:102D4000FBE7FEE780B500BF00BF024A1100182074
:102D5000ABBEFBE726000200080B0008FEE7FEE71B
:102D6000FEE7FEE7FEE7FEE7FEE7FEE7FEE7FEE73B
:102D7000FEE7FEE7FEE7FEE7FEE7FEE7FEE7FEE72B
:102D800000BF00BF00BF00BFFFF7AEFF70B401215E
:102D9000002213E00468001D0C4202D04D466D1E57
:102DA00064192260241D1B1F042BFAD225009E07E4
:102DB00001D52280AD1C0B4000D02A700368001D95
:102DC000002BE7D170BC704730B401210268001DB0
:102DD000002A0FD00368C318446808300C4202D0A0
:102DE0004D466D1E64191D6825601B1D241D121F94
:102DF000ECD0F8E730BC704795FFFFFFDC0A00001D
:102E0000080A002000000000C1FFFFFF04000000CE
:102E100048FFFFFF0002002000000000900DA741C6
:0400000508002D8141
:00000001FF
